:1000000045C000005EC50000CFC500005DC0000017
:100010005BC0000059C0000057C0000055C0000080
:1000200053C0000051C000004FC000004DC0000090
:100030004BC0000049C0000047C0000045C00000A0
:1000400043C0000041C000003FC000003DC00000B0
:100050003BC0000039C0000037C0000035C00000C0
:1000600033C0000031C000002FC000002DC00000D0
:100070002BC0000029C0000027C0000025C00000E0
:1000800023C0000021C000001FC0000011241FBEBB
:10009000CFEFD0E1DEBFCDBF13E0A0E0B1E0EEECEA
:1000A000F7E100E00BBF02C007900D92AE30B10740
:1000B000D9F723E0AEE0B3E001C01D92AE31B20744
:1000C000E1F7BED50C94E50B9BCF81B3887881BB5B
:1000D00008958FE39CE90197F1F700C0000090B309
:1000E000892F807194FD07C090910301913019F41C
:1000F00010920301089590B3892F807194FF09C075
:1001000080910301811104C081E08093030108956F
:1001100080E008958FE39CE90197F1F700C00000AB
:1001200090B3892F807295FD07C0909102019130A4
:1001300019F410920201089590B3892F807295FFEF
:1001400009C080910201811104C081E08093020105
:10015000089580E008958FE39CE90197F1F700C0CE
:10016000000090B3892F807496FD07C09091010123
:10017000913019F410920101089590B3892F807481
:1001800096FF09C080910101811104C081E0809334
:100190000101089580E008958FE39CE90197F1F74C
:1001A00000C0000090B3892F847092FD07C0909129
:1001B0000001913019F410920001089590B3892F35
:1001C000847092FF09C080910001811104C081E018
:1001D00080930001089580E00895BE9A8EB58260F4
:1001E0008EBD8EB588608EBD8EB58EBD8FB580619B
:1001F0008FBD88EE93E09BBD8ABD08958FB58F7C3F
:100200008FBD08958FB580618FBD0895FBDF88EEA7
:100210009EE09BBD8ABD2FEF85EA9EE02150804085
:100220009040E1F700C0000086ED9BE09BBD8ABDD9
:100230002FEF85EA9EE0215080409040E1F700C01A
:10024000000087EF99E09BBD8ABD2FEF85EA9EE015
:10025000215080409040E1F700C0000088E797E01F
:100260009BBD8ABD2FEF85EA9EE0215080409040E3
:10027000E1F700C00000C2CF0895C4DF88E797E02F
:100280009BBD8ABD2FEF85EA9EE0215080409040C3
:10029000E1F700C0000087EF99E09BBD8ABD2FEF1A
:1002A00085EA9EE0215080409040E1F700C00000C8
:1002B00086ED9BE09BBD8ABD2FEF85EA9EE0215035
:1002C00080409040E1F700C0000088EE9EE09BBDBA
:1002D0008ABD2FEF85EA9EE0215080409040E1F7F3
:1002E00000C000008BCF08958DDF88E797E09BBDAD
:1002F0008ABD2FEF80E792E0215080409040E1F7E7
:1003000000C0000081E39BE09BBD8ABD2FEF80E72A
:1003100092E0215080409040E1F700C000006ECF95
:100320000895CF936FDF87EF99E09BBD8ABD2FEFD4
:1003300033EC49E0215030404040E1F700C000007C
:1003400028E737E03BBD2ABD5FEF63EC79E0515011
:1003500060407040E1F700C000003BBD2ABDAFEF38
:10036000B3ECC9E0A150B040C040E1F700C00000CC
:100370004DEE55E05BBD4ABDEFEFF3EC69E0E150B7
:10038000F0406040E1F700C000005BBD4ABD7FEF78
:10039000A3ECB9E07150A040B040E1F700C000000C
:1003A0003BBD2ABDCFEFE6E1F1E1C150E040F040B6
:1003B000E1F700C000009BBD8ABD6FEF73ECA9E0C0
:1003C00061507040A040E1F700C000009BBD8ABDB5
:1003D000BFEFC3ECE9E0B150C040E040E1F700C03E
:1003E00000009BBD8ABDFFEF66E171E1F150604006
:1003F0007040E1F700C000009BBD8ABDAFEFB3ECD9
:10040000C9E0A150B040C040E1F700C0000060E783
:1004100074E07BBD6ABDEFEFF3EC69E0E150F040C2
:100420006040E1F700C000003BBD2ABD7FEFA3ECB8
:10043000B9E07150A040B040E1F700C0000068EEA4
:1004400077E07BBD6ABDCFEFE3ECF9E0C150E0405F
:10045000F040E1F700C00000E0EEF8E0FBBDEABDCF
:10046000AFEFB3ECC9E0A150B040C040E1F700C02D
:1004700000009BBD8ABDAFEFB6E1C1E1A150B04025
:10048000C040E1F700C000009BBD8ABDAFEFB3ECF8
:10049000C9E0A150B040C040E1F700C000003BBD42
:1004A0002ABDAFEFB3ECC9E0A150B040C040E1F7C6
:1004B00000C000003BBD2ABDAFEFB3ECC9E0A150C6
:1004C000B040C040E1F700C000005BBD4ABDAFEFE7
:1004D000B3ECC9E0A150B040C040E1F700C000005B
:1004E0005BBD4ABD4FEF53ECA9E041505040A040E6
:1004F000E1F700C000003BBD2ABDBFEFC6E141E10E
:10050000B150C0404040E1F700C000009BBD8ABD33
:100510005FEFA3ECB9E05150A040B040E1F700C05C
:1005200000003BBD2ABDCFEF43EC59E0C150404035
:100530005040E1F700C000007BBD6ABDAFEFB5EAF7
:10054000CEE0A150B040C040E1F700C00000FBBDCC
:10055000EABDEFEFF3EC49E0E150F0404040E1F755
:1005600000C000007BBD6ABD5FEF63EC79E05150D5
:1005700060407040E1F700C000003BBD2ABDAFEF16
:10058000B5EACEE0A150B040C040E1F700C00000A5
:100590002EE83AE03BBD2ABDEFEFF3EC29E0E15055
:1005A000F0402040E1F700C000009BBD8ABD3FEF56
:1005B00046E151E1315040405040E1F700C00000B9
:1005C0001DDECF91089582B1886182B9EBE8F0E039
:1005D000808181608083AAE8B0E08C9188608C93F0
:1005E0008C9182608C938081806A808308951092C0
:1005F0008500109284001092870010928600089562
:100600009DEC899F912D112496959695292F220F67
:10061000220F920F891B813019F41092110323C00D
:10062000811121C08091100381110DC080911103AF
:10063000811119C084E6809310031092050181E0B6
:100640008093110310C08091050181110CC080912D
:100650001103811108C01092100384E680930501F4
:1006600081E080931103809110032091050130E017
:10067000309385002093840090E0909387008093CE
:10068000860008959DEC899F912D1124969596954D
:10069000292F220F220F920F891B813019F41092FB
:1006A0000F0335C0811133C080910E03811116C034
:1006B00080910F0381112BC084E680930E0310926A
:1006C000040181E080930F032FEF83ED90E321502D
:1006D00080409040E1F700C0000019C08091040103
:1006E000811115C080910F03811111C010920E036A
:1006F00084E68093040181E080930F032FEF83ED64
:1007000090E3215080409040E1F700C000008091CC
:100710000E032091040130E0309385002093840083
:1007200090E09093870080938600089588EC90E095
:100730009093850080938400109287001092860029
:100740000895A09AA19AA29A0895AA9A0895AA989B
:100750000895A898A89AA8980895A99A0895A9987C
:100760000895A1980895A19A0895982F92959F7041
:10077000990F292F220F220F920F8F70890F089542
:100780000F931F93CF93DF93082FEDDFC0E0D0E0EE
:1007900010E098010C2E02C0359527950A94E2F7D7
:1007A00020FF02C0DADF01C0DADFD3DF2196C830D4
:1007B000D10579F7DF91CF911F910F910895DF92C5
:1007C000EF92FF920F931F93CF93DF93CADFC0E0A6
:1007D000D0E010E0D12C00E0EE24E394F12C999BC2
:1007E00008C0C7010C2E02C0880F991F0A94E2F7B7
:1007F00001C08D2D182BADDF2196C830D10579F7BA
:10080000812FDF91CF911F910F91FF90EF90DF909B
:100810000895CF93C82F99DF81E08C0FB1DFCFDF30
:10082000C82F95DF8C2FA1DFCF910895CF93DF9351
:10083000EC0180E8EEDF888382E8EBDF898384E8DF
:10084000E8DF8A83DF91CF910895CF93DF93EC01A6
:1008500086E8DFDF8B8388E8DCDF8C838AE8D9DFFA
:100860008D838CE8D6DF8E83DF91CF910895CF936F
:10087000C82FA8D081E08C0F843008F080E0CF91A1
:100880000895CF93C82FC8D081E08C0F843008F032
:1008900080E0CF910895CF93C82FE8D081E08C0FEE
:1008A000843008F080E0CF9108958F5F843008F0A5
:1008B00080E00895C39A8FE99FE00197F1F700C0A7
:1008C0000000C3988FE99FE00197F1F700C0000096
:1008D0000895C09A8BBBEEDF8FE39FE10197F1F79C
:1008E00000C000000895C0988BBBE4DF8FE39FE158
:1008F0000197F1F700C00000089581E0F4DF8FE375
:100900009FE10197F1F700C0000008952FEF80E705
:1009100092E0215080409040E1F700C000008FEF4E
:100920008ABB1BBA87B38D6087BBC29888E3DBDFC5
:100930008CE0D9DFE2DF86E0D6CF08950F931F93D6
:10094000CF93FC018081882351F08F01C0E0C1DF8B
:10095000CF5FF801EC0FF11D80818111F8CFCF91AD
:100960001F910F91089581706F7090E4899F600DC1
:100970001124862F8058B7CF0895CF93DF93EA01D3
:10098000F2DFCE01DBDFDF91CF9108959FEF9093EF
:10099000610087E080936400A2E6B0E09C93E5E606
:1009A000F0E080832FEF89E698E12150804090406D
:1009B000E1F700C000008C918A728C938081827074
:1009C000808308958091620082FF09C0E2E6F0E032
:1009D00080818860808380818B7F8083089580916F
:1009E000620083FF09C0E2E6F0E0808180618083DD
:1009F0008081877F808308958091620084FF06C094
:100A0000E2E6F0E080818F7E80830895E2E6F0E008
:100A100080818460808308958091620085FF09C091
:100A2000E2E6F0E080818064808380818F7D808336
:100A300008958091620086FF09C0E2E6F0E08081BF
:100A40008068808380818F7B80830895809162009D
:100A5000882334F4E2E6F0E080818F778083089584
:100A6000E2E6F0E0808180628083089580916500F5
:100A7000813021F482E080936500089580916500C3
:100A8000823021F484E080936500089580916500B0
:100A9000843019F4109265000895809165008111E9
:100AA00003C081E080936500089589B7836089BFA2
:100AB000EAE6F0E080818F60808385B7806285BF41
:100AC00008951F920F920FB60F9211240BB60F923A
:100AD0002F933F934F935F936F937F938F939F9346
:100AE000AF93BF93EF93FF938FE39CE90197F1F7E7
:100AF00000C0000080911C0381112DC081E0809313
:100B00001C0375DDBADB40E351E060E080E035DFD7
:100B100041E451E060E081E030DF9FEF2DE389E4C4
:100B2000915020408040E1F700C00000E6DE1092C6
:100B300062001092650085B7806285BF85B78461C9
:100B400085BF9FEF23ED80E3915020408040E1F787
:100B500000C000000DC080911C03813049F49AE070
:100B600088E10FB6F894A89581BD0FBE91BDFFCF67
:100B700088B7816088BF8FE39CE90197F1F700C0D7
:100B80000000FF91EF91BF91AF919F918F917F9165
:100B90006F915F914F913F912F910F900BBE0F90EE
:100BA0000FBE0F901F9018951F920F920FB60F92C5
:100BB00011240BB60F922F933F934F935F936F9334
:100BC0007F938F939F93AF93BF93EF93FF938FE3A5
:100BD0009CE90197F1F700C0000086DB80911D03BE
:100BE000813019F410921D030FC080911D038111F3
:100BF00004C083E080931D0307C080911D038330F0
:100C000019F49D9910921D0388B7826088BF8FE305
:100C10009CE90197F1F700C00000FF91EF91BF91AF
:100C2000AF919F918F917F916F915F914F913F9184
:100C30002F910F900BBE0F900FBE0F901F90189525
:100C4000CF93DF93CDB7DEB7A0970FB6F894DEBF92
:100C50000FBECDBF5BDEC19A42E551E060E080E0AF
:100C60008CDE6FDD93DE31DAB8DAADDC1EDFB99AE7
:100C7000A598789419828BE08A8395E19B839FE104
:100C80009C831D8296E09E838F8380E1888780E528
:100C9000898784E68A8788E78B871C8610921C03E5
:100CA00081E080931D0383E080931B03AFDA42E66B
:100CB00051E060E080E061DE43E751E060E081E028
:100CC0005CDE2FEF83ED90E3215080409040E1F710
:100CD00000C0000012DE99249394612C712C68945A
:100CE000552451F86894882481F800E0D12C10E054
:100CF0006894222421F80F2EF3E04F2EF02D7E0170
:100D0000EDE0EE0EF11C0F2EFAE03F2EF02D0F2E2F
:100D1000F6EAAF2EF1E0BF2EF02D0BC0DC2C09C09F
:100D2000DC2C7724739405C0DC2C7724739401C0E9
:100D3000DC2C82E193E07ADD82E193E086DD809134
:100D40001C03882321F0813009F4F9C1F2CF80918E
:100D50001203811739F080911D03813009F4F3D11A
:100D60001091120380911D03811108C09D9906C046
:100D700044E851E060E001DE40921D0380911D03D4
:100D8000813041F008F481C0823059F1833009F498
:100D9000CFC1CFCF9ED9813029F4A6DA882D67DD67
:100DA000882EC7CFB7D9813029F49EDA892D69DD25
:100DB000982EBFCFD0D9813029F496DA852D6BDDFE
:100DC000582EB7CFE9D9813009F0B3CF8DDA209210
:100DD0001D03E9E0F0E0EC0FFD1FE60DF11D0081C1
:100DE000A8CFDAD9813099F47FDA862D5EDD682EBE
:100DF000E9E0F0E0EC0FFD1FE80FF11D80818111AB
:100E000005C081E080931D03612C93CF082F45E935
:100E100051E060E080E0B1DDA70160E081E0ADDDA0
:100E2000C0901203CD1409F484CF01501F920F9388
:100E3000BF92AF92FF92EF92EDD1A70160E081E007
:100E40009CDDE1E0F0E0EC0FFD1FE80DF11D2081DD
:100E5000E5E0F0E0EC0FFD1FE50DF11D8081280FAE
:100E6000892D880F982F990F990F890F820F0F9056
:100E70000F900F900F900F900F9008134FCF10927C
:100E80001D03DC2C712C00E054CFC0901203CD1454
:100E900021F0711001C000E00F5F80911B038330CF
:100EA00009F050C0811004C010921B03DC2C41CF0C
:100EB00000FD06C049EB51E060E080E05EDD05C06A
:100EC0004CEC51E060E080E058DDE1E0F0E0EC0F58
:100ED000FD1FE80DF11DD0808D2D90E0801B910944
:100EE0009F938F938DED91E09F938F93FF92EF925D
:100EF00091D1A70160E081E040DD8D2D801B80DB7A
:100F00000F900F900F900F900F900F900D1508F409
:100F100007CF6DDB10921B0340EF51E060E080E0F3
:100F20002CDD41E052E060E081E027DDFFEF23EDC2
:100F300080E3F15020408040E1F700C00000DC2C4D
:100F4000712CF7CE80911B03811151C0911005C007
:100F500081E080931B03DC2CECCE00FD06C042E157
:100F600052E060E080E009DD05C043E252E060E06D
:100F700080E003DD1F929F92E4E3F2E0FF93EF93A2
:100F8000FF92EF9247D1A70160E081E0F6DC0F907D
:100F90000F900F900F900F900F900A30E9F49A94F1
:100FA00091101DC024DB81E080931B0347E452E0D5
:100FB00060E080E0E2DC48E552E060E081E0DDDC1A
:100FC0008FEF93EDE0E381509040E040E1F700C007
:100FD000000000E0712C06C07724739403C000E089
:100FE00077247394832D801B4DDBDC2CA2CE809163
:100FF0001B03813009F04EC0511004C020921B0326
:10100000DC2C97CE00FD06C049E652E060E080E0AF
:10101000B4DC05C04AE752E060E080E0AEDCE5E029
:10102000F0E0EC0FFD1FE50DF11DD0808D2D90E05F
:10103000801B91099F938F938DED91E09F938F93E8
:10104000FF92EF92E7D0A70160E081E096DC6EDBD3
:101050000F900F900F900F900F900F900D1508F4B8
:1010600063CEC5DA20921B034BE852E060E080E0DB
:1010700084DC4CE952E060E081E07FDCFFEF23EDAF
:1010800080E3F15020408040E1F700C00000DC2CFC
:10109000712C4FCE80911B03823009F049CEA7DA24
:1010A00040D94DEA52E060E080E067DC4EEB52E070
:1010B00060E081E062DC9FEFE3EDF0E39150E0401F
:1010C000F040E1F700C0000040921B0381E08093F4
:1010D0001D0380931C038BDAD0D840E351E060E01D
:1010E00080E04BDC41E451E060E081E046DC2FEF42
:1010F0008DE399E4215080409040E1F700C000006A
:10110000FCDBE2E6F0E01082E5E6F0E0108285B775
:10111000806285BF85B7846185BFFFEF23ED80E3E3
:10112000F15020408040E1F700C00000DC2C01CEEF
:101130005EDA4FEC52E060E081E01FDCFACD57DA76
:10114000DCDBC198F6CDEF92FF920F931F93CF9304
:10115000DF93CDB7DEB764970FB6F894DEBF0FBE4E
:10116000CDBF0F2EF2E1EF2EF3E0FF2EF02DD701D1
:101170008C911F928F9311968C9111971F928F9340
:1011800012968C911F928F9380EE92E09F938F9393
:101190008E010F5F1F4F1F930F933CD0A80160E09B
:1011A00080E0EBDBD7011596EC911597F0E0EE0FA0
:1011B000FF1FEA5FFE4F81818F9380818F9313968B
:1011C0008C9113971F928F9314968C9114971F9262
:1011D0008F9316968C911F928F9387EF92E09F9337
:1011E0008F931F930F9316D0A80160E081E0C5DBB9
:1011F0000FB6F894DEBF0FBECDBF64960FB6F8945D
:10120000DEBF0FBECDBFDF91CF911F910F91FF9039
:10121000EF9008950F931F93CF93DF93CDB7DEB771
:101220002E970FB6F894DEBF0FBECDBF0D891E8975
:1012300086E08C831A8309838FEF9FE79E838D83DB
:10124000AE01475E5F4F6F89788DCE01019610D059
:10125000EF81F885E00FF11F10822E960FB6F894FB
:10126000DEBF0FBECDBFDF91CF911F910F910895CB
:101270002F923F924F925F926F927F928F929F92A6
:10128000AF92BF92CF92DF92EF92FF920F931F9394
:10129000CF93DF93CDB7DEB72B970FB6F894DEBFB1
:1012A0000FBECDBF6C017B018A01FC011782168243
:1012B000838181FFBFC1CE0101963C01F60193817C
:1012C000F70193FD859193FF81917F01882309F4B4
:1012D000ADC1853239F493FD859193FF81917F01F2
:1012E000853221F4B60190E0D6D1E8CF912C212CA3
:1012F000312CFFE1F315D8F08B3279F038F48032DD
:1013000079F08332A1F4232D20611DC08D3261F06C
:10131000803369F4232D216016C0832D8260382E1E
:10132000E32DE4603E2E2AC0F32DF8601DC037FC8B
:101330002DC020ED280F2A3040F08E32B9F436FC53
:1013400075C1232D2064322E19C036FE06C08AE0F6
:10135000989E200D1124922E11C0EAE02E9E200DA1
:101360001124222EF32DF0623F2E08C08C3621F47A
:10137000832D8068382E02C0883641F4F70193FD32
:10138000859193FF81917F018111B3CF982F9F7D2C
:101390009554933028F40C5F1F4F9FE399830DC041
:1013A000833631F0833771F0833509F055C020C0A2
:1013B000F801808189830E5F1F4F88248394912CCC
:1013C000530112C02801F2E04F0E511CF801A08019
:1013D000B18036FE03C0692D70E002C06FEF7FEF71
:1013E000C5014ED14C018201F32DFF773F2E15C070
:1013F000280122E0420E511CF801A080B18036FE87
:1014000003C0692D70E002C06FEF7FEFC5012DD1E1
:101410004C01F32DF0683F2E820133FC19C0822D60
:1014200090E088169906A0F4B60180E290E033D1EE
:101430002A94F5CFF50137FC859137FE81915F0144
:10144000B60190E028D121102A9421E0821A910857
:101450008114910479F7E1C0843611F0893639F5A9
:10146000F80137FE07C060817181828193810C5F32
:101470001F4F08C060817181072E000C880B990BEB
:101480000E5F1F4FF32DFF763F2E97FF09C09095FB
:101490008095709561957F4F8F4F9F4FF0683F2EDD
:1014A0002AE030E0A30133D1882E861844C0853766
:1014B00031F4232D2F7EB22E2AE030E025C0932D6B
:1014C000997FB92E8F36C1F018F4883579F0AEC007
:1014D000803719F0883721F0A9C0E92FE061BE2ECE
:1014E000B4FE0DC0FB2DF460BF2E09C034FE0AC04F
:1014F000292F2660B22E06C028E030E005C020E18A
:1015000030E002C020E132E0F801B7FE07C06081A0
:101510007181828193810C5F1F4F06C06081718150
:1015200080E090E00E5F1F4FA301F1D0882E861857
:10153000FB2DFF773F2E36FE0DC0232D2E7FA22ED2
:10154000891458F434FE0BC032FC09C0832D8E7E02
:10155000A82E05C0B82CA32C03C0B82C01C0B92CF0
:10156000A4FE0FC0FE01E80DF11D8081803321F43F
:101570009A2D997EA92E09C0A2FE06C0B394B394F9
:1015800004C08A2D867809F0B394A3FC10C0A0FE95
:1015900006C0B21480F4280C922C9B180DC0B21413
:1015A00058F4B60180E290E076D0B394F8CFB2144C
:1015B00018F42B1802C0982C212CA4FE0FC0B601E1
:1015C00080E390E068D0A2FE16C0A1FC03C088E7CB
:1015D00090E002C088E590E0B6010CC08A2D8678C4
:1015E00051F0A1FE02C08BE201C080E2A7FC8DE2B7
:1015F000B60190E050D0891430F4B60180E390E059
:101600004AD09A94F8CF8A94F301E80DF11D8081B5
:10161000B60190E040D08110F6CF222009F44ECEE2
:10162000B60180E290E037D02A94F7CFF6018681A8
:10163000978102C08FEF9FEF2B960FB6F894DEBF15
:101640000FBECDBFDF91CF911F910F91FF90EF9013
:10165000DF90CF90BF90AF909F908F907F906F90D2
:101660005F904F903F902F900895FC01059061503E
:1016700070400110D8F7809590958E0F9F1F0895A8
:10168000FC016150704001900110D8F78095909551
:101690008E0F9F1F08950F931F93CF93DF93FB012E
:1016A000238121FD03C08FEF9FEF2CC022FF16C0C6
:1016B00046815781248135814217530744F4A08124
:1016C000B1819D012F5F3F4F318320838C93268111
:1016D00037812F5F3F4F3783268314C08B01EC0186
:1016E000FB010084F185E02D0995892BE1F6D801F5
:1016F00016968D919C911797019617969C938E93B1
:101700001697CE01DF91CF911F910F910895FA01A5
:10171000AA27283051F1203181F1E8946F936E7F30
:101720006E5F7F4F8F4F9F4FAF4FB1E03ED0B4E021
:101730003CD0670F781F891F9A1FA11D680F791F62
:101740008A1F911DA11D6A0F711D811D911DA11D73
:1017500020D009F468943F912AE0269F1124301983
:10176000305D3193DEF6CF010895462F4770405D1E
:101770004193B3E00FD0C9F7F6CF462F4F70405DCD
:101780004A3318F0495D31FD4052419302D0A9F728
:10179000EACFB4E0A6959795879577956795BA9522
:1017A000C9F700976105710508959B01AC010A2EE8
:1017B00006945795479537952795BA95C9F7620FBF
:0E17C000731F841F951FA01D0895F894FFCF7E
:1017CE00010101016464140118011C0120012401AE
:1017DE0028012C0153554E004D4F4E0054554500D7
:1017EE005745440054485500465249005341540051
:1017FE00202020504F574552204F46462020202073
:10180E000020202020204279652E2E20202020200E
:10181E002000494E495449414C495A494E472E2EB3
:10182E002E0020203C3E57454C434F4D45213C3E1B
:10183E0020200020202E2E2E2E2E2E2E2E2E2E2E20
:10184E002E202000506C7A2C2020436C6F73652064
:10185E00446F6F7200207C52657365727665204D01
:10186E006F64657C2000434F4D504C4554452025F8
:10187E00303264207365632000202057415348495D
:10188E004E472E2E2E282920202020002020574182
:10189E005348494E472E2E2E292820200052454DC2
:1018AE0041494E494E473A202530326473656300F4
:1018BE002020574153482046494E49534820202066
:1018CE000020202A2A2A2A2A2A2A2A2A2A2A2020BC
:1018DE002000202052494E53494E472E2E2E3E3C7C
:1018EE00202000202052494E53494E472E2E2E3C8A
:1018FE003E20200052454D41494E494E473A205B0D
:10190E00253032645D2000202052494E534520463A
:10191E00494E49534820200020202D2D2D2D2D2DB0
:10192E002D2D2D2D2D2D20200020205350494E4E93
:10193E00494E472E2E2E5D5B200020205350494EDF
:10194E004E494E472E2E2E5B5D20002020535049CF
:10195E004E202046494E49534820200020203A3A36
:10196E003A3A3A3A3A3A3A3A3A3A2020002020574E
:10197E004F524B202046494E4953482020002020EC
:10198E002F2F2F2F2F2F2F2F2F2F2F2F20200020B5
:10199E00202020202050415553452020202020007B
:1019AE0054494D4520205B253032643A253032644F
:1019BE003A253032645D005B253032642F2530329B
:0E19CE00642F2530326420282573295D000027
:00000001FF
